:020000040800F2
:100000000000022055BF0008E18E0008E38E0008C2
:10001000E58E0008E78E0008E98E00080000000069
:10002000000000000000000000000000EB8E00084F
:10003000ED8E000800000000EF8E0008F18E000831
:10004000A5BF0008A5BF0008A5BF0008A5BF000800
:10005000A5BF0008A5BF0008A5BF0008A5BF0008F0
:10006000A5BF0008A5BF0008A5BF0008A5BF0008E0
:10007000A5BF0008A5BF0008A5BF0008A5BF0008D0
:10008000A5BF0008A5BF0008A5BF0008A5BF0008C0
:10009000F98E0008A5BF0008A5BF0008A5BF00088D
:1000A000A5BF0008C9910008A5BF0008A5BF0008AA
:1000B000A5BF0008A5BF0008A5BF0008A5BF000890
:1000C000A5BF0008A5BF0008A5BF0008A5BF000880
:1000D000A5BF0008A5BF000849900008A5BF0008FB
:1000E000A5BF0008A5BF0008A5BF0008A5BF000860
:1000F000A5BF0008A5BF0008A5BF0008A5BF000850
:10010000A5BF0008A5BF0008A5BF0008A5BF00083F
:10011000A5BF0008A5BF0008A5BF0008A5BF00082F
:10012000A5BF0008A5BF0008A5BF0008A5BF00081F
:10013000A5BF00080000000000000000A5BF0008E7
:10014000A5BF0008A5BF0008A5BF0008A5BF0008FF
:10015000A5BF0008A5BF0008A5BF0008A5BF0008EF
:10016000A5BF0008A5BF0008A5BF0008A5BF0008DF
:10017000A5BF0008A5BF0008A5BF0008000000003B
:1001800000000000A5BF0008000000000000000003
:10019000A5BF00080000000000000000A5BF000887
:1001A000000000000000000000000000A5BF0008E3
:1001B000A5BF0008A5BF0008A5BF0008A5BF00088F
:0401C000A5BF0008CF
:100200000348044B834202D0034B03B118477047A5
:10021000E4010020E4010020000000000548064938
:100220000B1AD90F01EBA301491002D0034B03B104
:1002300018477047E4010020E4010020000000009E
:1002400010B5064C237843B9FFF7DAFF044B13B11E
:100250000448AFF300800123237010BDE8010020A3
:1002600000000000A8BF000808B5044B1BB10449FA
:100270000448AFF30080BDE80840CFE7000000006D
:10028000EC010020A8BF0008002101F08FB900BFD9
:100290000A22002101F0F6BA0A23002201F0E4BA92
:1002A000014B1868704700BF0000002070B50D4E6C
:1002B0000D4D761BB61006D00024013455F8043BD2
:1002C0009847A642F9D1094E094D761B0BF06CFEFA
:1002D000B61006D00024013455F8043B9847A642D6
:1002E000F9D170BD68D5000868D500086CD5000844
:1002F00068D50008844641EA000313F003036DD17A
:10030000403A41D351F8043B40F8043B51F8043BD8
:1003100040F8043B51F8043B40F8043B51F8043BDF
:1003200040F8043B51F8043B40F8043B51F8043BCF
:1003300040F8043B51F8043B40F8043B51F8043BBF
:1003400040F8043B51F8043B40F8043B51F8043BAF
:1003500040F8043B51F8043B40F8043B51F8043B9F
:1003600040F8043B51F8043B40F8043B51F8043B8F
:1003700040F8043B51F8043B40F8043B51F8043B7F
:1003800040F8043B403ABDD2303211D351F8043B1F
:1003900040F8043B51F8043B40F8043B51F8043B5F
:1003A00040F8043B51F8043B40F8043B103AEDD2CE
:1003B0000C3205D351F8043B40F8043B043AF9D21F
:1003C000043208D0D2071CBF11F8013B00F8013BF2
:1003D00001D30B8803806046704700BF082A13D3FF
:1003E0008B078DD010F003038AD0C3F10403D21A17
:1003F000DB071CBF11F8013B00F8013B80D331F84B
:10040000023B20F8023B7BE7043AD9D3013A11F8CA
:10041000013B00F8013BF9D20B7803704B78437035
:100420008B78837060467047F0B4860746D0541EC0
:10043000002A3CD0CAB2034602E014F1FF3436D39E
:1004400003F8012B9D07F8D1032C29D9CDB245EA39
:1004500005250F2C45EA054533D9A4F110063609C8
:1004600003F1200707EB061703F1100242E90455D8
:1004700042E902551032BA42F8D1721C14F00C0F46
:1004800003EB021204F00F0613D0331F23F0030313
:100490000433134442F8045B9342FBD106F0030497
:1004A0002CB1C9B21C4403F8011B9C42FBD1F0BC27
:1004B000704734461346002CF3D1F8E71446034640
:1004C000C2E71A462646E0E70EB410B5044683B0EC
:1004D00008B1836963B106A803460190059AA16833
:1004E000204602F091FF03B0BDE8104003B0704712
:1004F00001F074FCEFE700BF0FB410B50B4B1C68A4
:1005000082B00CB1A36963B105A803460190049AB7
:10051000A168204602F078FF02B0BDE8104004B0A8
:100520007047204601F05AFCEEE700BF00000020B3
:1005300083692DE9F04180460E4633B384682F4B22
:100540009C4230D02E4B9C4239D02E4B9C4208BF4F
:10055000D8F80C40A3891B072AD5236943B3013E71
:10056000A36816F8015F013BA3609DB3002B07DA77
:10057000A7699F4222462946404623DC0A2D21D006
:1005800023685A1C22601D70EAE701F027FCD8F8A6
:100590001830D8F80840002BD1D1404601F01EFC9D
:1005A000164B9C42CED1D8F80440A3891B07D4D463
:1005B0002146404601F0D2F90028D0D006E0D8F814
:1005C0000840C7E701F06AF90130C9D14FF0FF30A8
:1005D000BDE8F081002B09DA224640460A2101F0ED
:1005E0005DF90130F2D00A20BDE8F08123680A22CB
:1005F000591C21601A701046BDE8F0815CC10008EA
:100600003CC100081CC10008024B01461868FFF7F6
:100610008FBF00BF0000002070B504460D4645ECBA
:10062000104B164602F056FC51EC100B7EB1C5F390
:100630000A53C3F16B03002B09DD1B0503F17F5542
:10064000002405F5401522462B4604F0EFFC70BD52
:100650002DE9F04F734CA3B0246807948846814677
:10066000002120461D4600240023CDE904340692D3
:100670001E9103F085FACDF87480834643469A466E
:1006800013F8014B2D2C00F2B380DFE804F01EB10B
:10069000B1B1B1B1B1B1B1AFAFAFAFAFB1B1B1B154
:1006A000B1B1B1B1B1B1B1B1B1B1B1B1B1B1AFB13C
:1006B000B1B1B1B1B1B1B1B1B1ACB12C002D40F01B
:1006C000B6800B9B034340F0B180069B13B1069BA1
:1006D000C3F800804FF0000A4FF0000B4BEC10AB5A
:1006E00023B0BDE8F08F01230A930AF101031D93A3
:1006F0009AF80140002CE8D0302C9A467CD0002398
:100700000B93A4F13003DAB2092A00F29D8400268B
:1007100037463546504601301D90082D047807EBCA
:100720008702CABF06EB860603EB420703EB4606C9
:10073000A4F13003DAB2092A05F10105EBD90799D2
:100740005A4603F08BFA002800F02C810020652C1B
:100750008346844608956AD0452CAFD000230C937D
:10076000002D00F0B080089B1A46002B08BF2A46D7
:100770003846089204F0E0FB0C9B102DA3EB0B0312
:100780002C46A8BF1024092DCDE904010B9313DDDD
:10079000254B03EBC40353E9122304F047FCCDE9D6
:1007A0000401304604F0C8FB02460B46DDE90401B3
:1007B00004F086FACDE904010F2D00F306810B9BAE
:1007C000002B00F082840B9B40F38783162B40F3B1
:1007D0007A850B9AC5F12503934280F28A850B9B9B
:1007E0002C1B1C44F7E000230A937EE71D9346E789
:1007F0000023302C0A9382D19AF80130582B00F054
:100800006784782B18BF534600F0628401331D9330
:100810001C78302CFAD09A46002C00F0AF800123CF
:100820000B936EE77CC2000898C200080025DDF833
:10083000748008F101031D9398F801402B2C00F0FF
:10084000E1822D2C00F073824FF0000EA4F13003F2
:10085000092B00F27482302C05D11D9B01331D93AE
:100860001C78302CFAD0A4F13103082B3FF676AF78
:100870001D9907914A1C1D92A4F130034C78A4F1F4
:100880003001092900F2768401321D9203EB8303C3
:1008900004EB43031478A4F130010929A3F13003D8
:1008A000F2D90799521A082A40F3648444F61F6368
:1008B0000C93BEF1000F3FF453AF0C9B5B420C93C3
:1008C000002D7FF450AF0B9B034357D1BCF1000FB9
:1008D0007FF4FBAE493C252C3FF6F7AE01A353F85D
:1008E00024F000BF230F0008CB060008CB06000849
:1008F000CB060008CB060008FF0E0008CB06000858
:10090000CB060008CB060008CB060008CB06000883
:10091000CB060008CB060008CB060008CB06000873
:10092000CB060008CB060008CB060008CB06000863
:10093000CB060008CB060008CB060008CB06000853
:10094000CB060008CB060008CB060008CB06000843
:10095000CB060008CB060008CB060008CB06000833
:10096000CB060008230F0008CB060008CB060008C2
:10097000CB060008CB060008FF0E00084FF0000A67
:100980004FF0000B069A0AB11D9B13600A9B002BC7
:100990003FF4A4AE0BF100439B464BEC10AB23B0ED
:1009A000BDE8F08F1D9B089503EB0B021D9213F819
:1009B0000B408346A4F13002092A40F2B183652C32
:1009C0004FF0010C7FF4C8AE31E70B9B2C1B1C448D
:1009D000002C40F3E58214F00F030AD0BA4901EB72
:1009E000C301D1E90001DDE9042304F01FFBCDE9D7
:1009F000040134F00F0440F059820023079300975C
:100A00002B46089A5146484601F08CFF1390002867
:100A100000F004840B9A0C9B0021002AABEB03032B
:100A2000A8BF0B460E9322EAE2730F4612938B4641
:100A3000139C4846616801F0BFFE8046002800F024
:100A4000588122699DED047B0232920004F10C0171
:100A50000C308DED087BFFF74DFC9DED080B20AAB7
:100A60001FA9484602F0BAFA1E90002800F01A8129
:100A70000121484601F0FCFF0746002800F03981BB
:100A80001F9B002BC0F211810E9A129D9E18079990
:100A9000209C8E4A5B1A2344013B9342C4F13604E6
:100AA00080F2C580D21A1F2AA4EB020400F337811A
:100AB000012393400C93002310932544079B344457
:100AC000A6421D443346A8BF2346AB42A8BF2B46CF
:100AD000002B02DDE41AED1AF61A0E9B002B00F330
:100AE000BF80002C00F3D5800B9B002B00F3F88017
:100AF000002D00F30A81002E08DD394632464846B3
:100B000002F0D4F80746002800F0F38042461E9910
:100B1000484602F04BF98346002800F0EA800023A3
:100B2000C268C36039460F9202F024F90028C0F26F
:100B30005E84059E00F0F4833946584602F0B8FA08
:100B400055EC104B00224FF0804310EE100A29465E
:100B500004F0E8FC00286FD00F9B002B00F0F98018
:100B60009FED557B5A4C0023CDE90C348DED107B65
:100B7000584D594B06EA05049C4200F00F81079B33
:100B800053B3B4F1D46F27D8DDE910564CA3D3E9A1
:100B900000232846314604F0C5FCC0B12846314642
:100BA00004F01CFD002800F0F28204F0C5F9CDE944
:100BB00010010F9B002B40F0E582DDE9101202F1DD
:100BC000004316911793DDE91623CDE90C230D9B05
:100BD00003F1D6631B1B0D939DED080BDDE90C564D
:100BE00002F078F9284653EC102B314604F01EFA37
:100BF000DDE9082304F064F8CDE904010D46079B04
:100C000023B9344B2B409C4200F0FF801E9948468C
:100C100001F012FE4146484601F00EFE39464846B4
:100C200001F00AFE5946484601F006FE00E700239F
:100C3000109301230C9340E7284B204629460022BD
:100C400004F0F4F90F9BCDE91001002B7CD101F1E8
:100C5000004314901593DDE91434CDE90C3487E793
:100C600039461A46484601F0BFFF0746002840D0E3
:100C700001461E9A484601F011FF002839D00F9016
:100C80001E99484601F0D8FD0F9B1E93002C7FF75C
:100C90002BAF22461E99484602F008F81E90002805
:100CA0007FF422AF5E46044625E0129A0E9ED51AC6
:100CB000EDE600BFAFF30080000000000000F03F51
:100CC0000000C0FFFFFFDF4198C2000802FCFFFFE9
:100CD0000000F03F0000F07F0000E07F0000E03FF8
:100CE0004146129A484601F07FFF804600287FF473
:100CF000FFAE5E461E9C9E4B05930022222304926B
:100D0000DDE904ABC9F80030A8E041462A46484670
:100D100001F0CCFF804600287FF4EDAEE9E7954A6C
:100D2000D31A012202FA03F310930C92C5E64FF096
:100D3000010E08F102031D9398F8024086E5002396
:100D4000CDF874800C930BE59DED107B8DED147B3D
:100D500081E7049B002B40F09680C6F31303002B21
:100D600040F097800022844B2046294604F0D0FBB7
:100D7000002840F0B5820022804B2046294604F02E
:100D800055F90A460146CDE9101202F100431A90C6
:100D90001B93DDE91A34CDE90C34E9E6A6F154736E
:100DA00005939DED047BDDE90C01B0EE470AF0EE02
:100DB000670ACDE90C0102F08DF8DDE90C0153EC76
:100DC000102B04F033F9DDE9042303F079FF05EA81
:100DD000010C0B46CDE90401DDE90801684A05462E
:100DE0000E469445CDE918565CD9664B994203D11D
:100DF000B0F1FF3F3FF47DAF62494FF0FF33CDE9E3
:100E0000043103E74FF0000E93E7DDE9100104F031
:100E10006DFC04F0DDF802460B46DDE9100103F03D
:100E20004DFF0F9B049AC5F3130513432B43CDE9E4
:100E3000080149D046A3D3E9002304F069FB48B96F
:100E4000DDE9080144A3D3E9002304F07FFB002877
:100E50003FF4DCAE5E46DDE904AB1E9C214648460D
:100E600001F0EAFC4146484601F0E6FC39464846B6
:100E700001F0E2FC1399484601F0DEFC3146484699
:100E800001F0DAFC7EE5049B012B02D1002E00F07C
:100E900040839FED337B3C4C0023CDE90C348DED3A
:100EA000107B65E603F154750595A8E6B4F59A7FC5
:100EB00040F372812E4B0593002222230492DDE938
:100EC00004ABC9F800305DE527A3D3E9002304F0A3
:100ED0001FFB00283FF49AAEBCE71633FFF675AD52
:100EE0000C9A2A4BABEB020B03EBCB03DDE90401BD
:100EF000D3E9002304F0C4F982468B4642E51DA8DD
:100F0000234901F0DBFA00283FF4DFAB1D9B1B787F
:100F1000282B00F097821F4802F0C6FD5BEC10AB57
:100F200030E51DA81C4901F0C9FA00283FF4CDABFB
:100F30001D9B1A49013B1DA81D9301F0BFFA10B972
:100F40001D9B01331D930A4B0593DDE904AB19E5A5
:100F50009535A094FFFFDF3F35E5AF350000E03F5A
:100F6000000000000000F03F9535A094FFFFCF3F48
:100F70000000F07FE2FBFFFF0000F03F0000E03FD9
:100F8000FFFF9F7CFFFFEF7F0000F0BF98C20008CB
:100F900034D40008ACC4000828D400082CD40008BD
:100FA0003FF42BAD644214F00F020AD0BA4B03EBAE
:100FB000C203DDE90401D3E9002304F061F9CDE9BE
:100FC000040124113FF419AD1F2C35DC14F010037B
:100FD000DDE9040118BF6A23B04E07930023E2073E
:100FE00004D5D6E9002304F021F80123641006F1AA
:100FF0000806F4D10BB1CDE90401079B9BB1DDE9F3
:101000000412C2F30A53C3F16B03002B11460ADD2D
:101010001F2B40F36B820022342B049240F3718229
:101020004FF05C73059300220023DDE9040104F016
:1010300065FA00283FF4E3AC2223C9F800304FF0F2
:10104000000A4FF0000B9DE407995A46504602F003
:1010500005FE0890002840F072821D9A02EB0B03F7
:101060001D9312F80B40302C08BFC3F1010240F071
:10107000E080981801331D931C78302CF9D0A4F12E
:101080003103082B12D8DDF874A00027A4F1300E2C
:1010900000F1010B54463E46012507EB87070EEB96
:1010A00047070020631C1D93647883E4652C2FD0D0
:1010B000452C2DD04FF0010C05E4794B0593240706
:1010C00042BF059B43F000430593DDE904AB59E4BF
:1010D0000A9A02951EABCDE900321DA91FAB714AD9
:1010E000484600F03BFF10F0070504463FF446ACCD
:1010F000062D40F0A080069A0AF10103002A3FF471
:10110000E9AA13604FF0000A4FF0000BFFF7E6BAB0
:101110004FF0000B5E465F464FF0010CFFF7D1BA6F
:10112000013096461D9C002ABCD00128834405F15D
:10113000010100F00182284400F1FF3C03E04F0070
:1011400063451D460BD0082D05F1010307EB870110
:10115000F5DD102BDCBF06EB86067600F0E70546D2
:10116000082B9ADD102DDCBF06EB860602EB460647
:10117000002097E744F61F629342A8BF13460C93E2
:10118000FFF797BB9DED107B8DED167B1BE59FED6B
:10119000407B8DED107B0CE52411012C424B40F37C
:1011A0006581DDE904011E4607930023984614F08B
:1011B000010F08F101084FEA640404D0D6E90023C6
:1011C00003F034FF0123012C06F10806EFD10BB127
:1011D000CDE90401059B324C344EA3F154730593C1
:1011E000079B03EBC808D8E90001DDE9042303F0FD
:1011F0001DFF01EA0403B3420A46CDE9040100F2EF
:10120000D4802B498B4240F2C9802A4B059300239E
:1012100007934FF0FF330493FFF7F1BB204B059387
:10122000139B04932223DDE904ABC9F80030FFF7D8
:10123000A9BB089823E71E9A3AB1352120A801F0EE
:1012400087FF48461E9901F0F7FA013D042D3FF64D
:1012500036AF01A353F825F0771200086D1200088D
:10126000BB100008B912000877120008209B0493F5
:10127000219B059323E7DDE920131F9A049102F2D5
:10128000334223F4801343EA0253059317E700BF68
:10129000000000000000F03F98C20008F0BF000806
:1012A0000000F07FC8BF000888C300080000A07CD1
:1012B0000000907CFFFFEF7F4FF0FF336FF00045A1
:1012C000CDE90435FBE6AA4901EBC301D1E90001F0
:1012D000DDE9042303F0AAFE82468B46FFF752BBEA
:1012E0009FED9F7B8DED1A7B9FED9F7B8DED107B9E
:1012F0004FE59F4CC5F10F0504EBC501DDE9042363
:10130000D1E9000103F092FE0B9B5D1B04EBC504C9
:10131000D4E9002303F08AFE82468B46FFF732BBF6
:101320000F990B963346934A5E46C3F31303DDE9E8
:1013300008AB002943D0934200F0B680109B002BED
:101340007BD00B9A134210D00F9B079ADDE9040162
:10135000002B00F08F80FFF75FF902460B465046E6
:10136000594603F0ADFC82468B46079B1E9C002B22
:101370003FF474AD804A0023CDE918325046DDE9D0
:101380001823594603F052FE03460B4308BF22239D
:1013900082468B4608BFC9F800305FE502F15473FE
:1013A000059300230793FFF72ABB002304930594BA
:1013B0002223DDE904ABC9F80030FFF7E3BA049A51
:1013C0001343BBD1079B002B40F0A5806B4B0B9ABE
:1013D0001A401346A3F580136FEA13536FEA0353C1
:1013E00005934FF0FF330493DDE904ABBDE7DDE97E
:1013F00004450F9B23435A465E46DDE908ABB4D152
:10140000C5F313030B95002BAFD125F000431B0D43
:101410001B05B3F1D66FA8D9536913B91369012B12
:10142000A3DD31460122484601F040FC394606461C
:1014300001F0A0FC002898DDC4E70C9B049A13423D
:1014400093D081E71DA820AA4D4901F04FF8052847
:101450007FF461AD219B43F0FF4343F4E003059328
:10146000209B0493DDE904ABFFF78CBA07934FF0A0
:101470000008AFE6FFF7D0F802460B465046594643
:1014800003F01CFC0022002382468B4604F036F851
:1014900000283FF46AAF2223C9F800301E9C4FF0A9
:1014A000000A4FF0000BD9E4079B049933B3334B88
:1014B0000B9A1340B3F1D46F20D81B0DC3F16B030B
:1014C0004FF0FF3202FA03F399427FF437AF2D4B0E
:1014D0000B9A9A422CD0294B0B9A1A4002F5801392
:1014E000059300230493DDE904AB3EE74FF0FF32A0
:1014F00002FA03F3049A1A40049294E54FF0FF3382
:10150000E2E7203B4FF0FF3202FA03F30B40059372
:1015100089E55E46BFE7194B0B9A1A40B2F1D66FC8
:1015200013463FF757AFB2F15C7FB4DD1E9C21E755
:101530000131D0D1FFF7DEBB2B460D4610E600236C
:10154000652C08931E461F4618469B4603D01D4631
:101550009C46FFF701B99C46FFF7B3B8AFF3008094
:10156000000000000000E0BF000000000000E03FBD
:1015700098C20008FFFF0F00000050390000F07F04
:10158000DCBF0008FFFFEF7F014BFFF761B800BF32
:101590006800002010B4044C13460A460146206837
:1015A0005DF8044BFFF754B80000002010B4044C61
:1015B000044B0A46014620685DF8044BFFF748B823
:1015C00000000020680000202DE9F041DFF8A8802D
:1015D00013462DED028B0A460146D8F80000FFF7AE
:1015E00037F855EC104B10EE102A2B4610EE100A6F
:1015F000294603F0B5FF50BB2046294604F00EF8FB
:1016000008EE100ADFED197AB0EEC87AB4EE677A08
:10161000F1EE10FA15DD25F00047204639464FF06F
:10162000FF32134B03F09CFF38B9204639464FF088
:10163000FF320F4B03F076FF18B1D8F800302222AA
:101640001A60B0EE480ABDEC028BBDE8F081002DB7
:10165000084804DA02F042FAB1EE408AF1E7BDEC44
:10166000028BBDE8F04102F039BA00BFFFFF7F7F77
:10167000FFFFEF7FACC40008000000202DE9F0411F
:10168000DFF8AC80264B0A462DED028B0146D8F8D8
:101690000000FEF7DDFF55EC104B10EE102A2B4634
:1016A00010EE100A294603F05BFF50BB2046294686
:1016B00003F0B4FF08EE100ADFED1A7AB0EEC87A34
:1016C000B4EE677AF1EE10FA15DD25F000472046FA
:1016D00039464FF0FF32144B03F042FF38B9204631
:1016E00039464FF0FF32104B03F01CFF18B1D8F809
:1016F000003022221A60B0EE480ABDEC028BBDE831
:10170000F081002D094804DA02F0E8F9B1EE408AD0
:10171000F1E7BDEC028BBDE8F04102F0DFB900BF9C
:1017200068000020FFFF7F7FFFFFEF7FACC4000851
:1017300000000020012B2DE9F84F41D0242B9846C2
:101740003ED80F46DFF81CC100E02F463D4615F895
:10175000014B1CF8046016F00806F6D12D2C6CD055
:101760002B2C0ABF95F800B0A346BD1C002B46D019
:10177000102B57D0002E14BF4FF000496FF00049D6
:101780000027B9FBF8FEBC4608FB1E9A07E0E645B9
:1017900013D32FD00CFB084C012715F801BBABF17C
:1017A0003004092C05D9ABF14104192C0FD8ABF149
:1017B0003704A34213DD002FE9DA4FF0FF37ECE7DF
:1017C000FEF76EFD162303600020BDE8F88FABF135
:1017D0006104192C03D8ABF15704A342EBDC002FB2
:1017E00025DB0EB1CCF1000C0AB177BB116060466D
:1017F000BDE8F88FA245CDDA4FF0FF37CDE7BBF15A
:10180000300F03D04FF00A084346B3E72B7803F0BC
:10181000DF03582B1BD14FF0100895F801B0434659
:101820000235A7E7BBF1300F15D09846A2E7222377
:1018300003603AB1691ECC46D8E795F800B001269E
:10184000BD1C93E7CC466046D2E7E146F2E74FF095
:10185000080843468EE72C7804F0DF04582CDAD0D1
:10186000984687E719C0000864E700BF10B4044C2D
:1018700013460A46014620685DF8044B5AE700BF4C
:101880000000002010B4044C13460A4601462068AC
:101890005DF8044B4EE700BF00000020F8B50D4690
:1018A0001446064608B1836943B3254B9C422AD0AF
:1018B000244B9C4229D0244B9C4208BFF468A38946
:1018C000A269A2601A0722D5236903B3226861695D
:1018D000D31AEDB299422F4629DD0133A168501C7D
:1018E0000139A1602060157062699A4216D0A389FF
:1018F000DB0701D50A2D11D03846F8BD00F06EFA8D
:101900000F4B9C42D4D17468D9E7B468D7E721461D
:10191000304600F023F838B92369D7E7214630462E
:1019200000F032F90028E7D04FF0FF37E4E7214616
:10193000304600F029F90028F6D122680123CDE7CE
:101940005CC100083CC100081CC10008024B0A46EB
:1019500001461868FFF7A2BF000000203B4B70B59E
:101960001D6806460C460DB1AB69DBB1384B9C4295
:101970001ED0384B9C424AD0374B9C4208BFEC6883
:10198000B4F90C2093B2190718D5206908B313F0E5
:1019900001022CD0636900225B42A361A26060B3A4
:1019A000002070BD284600F019FA294B9C42E0D176
:1019B0006C68B4F90C2093B21907E6D4DD063CD567
:1019C000580726D4206942F00803A3819BB200285F
:1019D000DDD103F42072B2F5007FD8D03046214625
:1019E00000F080FEA389206913F00102D2D199078B
:1019F00058BF6269A2600028D2D1B4F90C301A062F
:101A0000CFD543F04003A3814FF0FF3070BDAC68E9
:101A1000B6E7616B51B104F14403994204D03046FA
:101A200001F0F4FBB4F90C20002363630023206968
:101A3000636022F024022060C5E742F040020923DF
:101A400033604FF0FF30A28170BD00BF0000002066
:101A50005CC100083CC100081CC100088B891A0742
:101A60002DE9F0410C46804641D44A68002A59DDF0
:101A7000E66A002E53D00022D8F80050216AC8F838
:101A8000002013F4805251D101234046B047431C3B
:101A90005FD0A389E66A216A5F0705D56268636B38
:101AA000801A0BB1236CC01A024600234046B0478F
:101AB000461C45D1D8F80030B4F90C20002B55D085
:101AC0001D2B01D0162B5AD123690022C4E9003204
:101AD000616BC8F8005011B304F14403994202D07D
:101AE000404601F093FB00206063BDE8F0810E6981
:101AF000AEB10D680E6099070CBF63690023AD1B82
:101B0000A3600AE02B463246A76A216A4046B847DE
:101B10000028A5EB000506440ADD002DF2DC0020BC
:101B2000BDE8F0810A6C002AA2DCF8E7606DB3E73B
:101B3000A38943F04003A3814FF0FF30BDE8F0815B
:101B40002269A389226000226260DA04C0D5606540
:101B5000BEE7D8F80030002B9BD01D2B0CD0162BE5
:101B60000AD0A38943F04003A381D9E72169C4E9DE
:101B70000013D304ACD5EAE7C8F80050CFE742F031
:101B80004002A281CCE700BF0B6923B310B5044625
:101B900082B008B18369BBB1104B994212D0104B8F
:101BA000994216D00F4B994208BFE168B1F90C3049
:101BB0002BB1204602B0BDE81040FFF74FBF002018
:101BC00002B010BD6168F1E7019100F007F90199D9
:101BD000E2E7A168EAE70020704700BF5CC10008A7
:101BE0003CC100081CC1000820B1054B0146186823
:101BF000FFF7CABF034B0449186800F035B900BFAE
:101C000000000020C0BF0008891B000800207047AA
:101C1000014900F029B900BF891B00080020704766
:101C200070B54A1E682505FB02F50E4605F17401E4
:101C300001F042FB044640B100210C30666005F122
:101C400068022160A060FEF7EFFB204670BD00BF78
:101C50001E4B70B51D68AB69064643B34835D5E9E0
:101C60000134013B05D51EE0013B5A1C04F1680418
:101C700019D0B4F90C20002AF6D10025144B656662
:101C8000C4E90055A560C4E90455A5612946E3608F
:101C9000082204F15C00FEF7C7FBC4E90D55C4E956
:101CA0001255204670BD2C682CB12546D7E7284632
:101CB00000F010F8D2E704213046FFF7B1FF0446E8
:101CC00028600028F1D10C233360EAE7C0BF000888
:101CD0000100FFFF2DE9F84F334B34491A68816248
:101CE00090424FF00003C0E91233036504BF0123A3
:101CF00083610546FFF7ACFF68602846FFF7A8FF41
:101D0000A8602846FFF7A4FF6E68E860002404235B
:101D1000F3607466C6E90044B460C6E90444B46183
:101D2000214606F15C000822FEF77EFBDFF888B052
:101D3000AF68DFF888A0DFF88890DFF888801C4B58
:101D4000C6F83080C6E9086BC6E90AA92146FB60DF
:101D500008227C66C7E90044BC60C7E90444BC6152
:101D600007F15C00FEF760FBEE68124BC7F83080AD
:101D7000C7E9087BC7E90AA92146F3607466C6E98A
:101D80000044B460C6E90444B46106F15C00082272
:101D9000FEF74AFB0123C6E9086BC6E90AA9C6F8A3
:101DA0003080AB61BDE8F88FC0BF0008111C00088F
:101DB0000900010012000200E93A0008113B000886
:101DC000513B0008713B0008024B0349186800F0C2
:101DD0004BB800BFC0BF0008891B0008836903B966
:101DE00078E77047704700BF704700BF704700BF7B
:101DF000704700BF024B0349186800F00FB800BFDE
:101E0000000000200D1C0008024B0349186800F078
:101E100005B800BF000000201D1C00082DE9F0419E
:101E200010F148071BD088460026D7E90154013D30
:101E30000FD4A389012B05F1FF3506D9B4F90E3073
:101E40000133204601D0C04706436B1C04F16804EF
:101E5000EFD13F68002FE8D13046BDE8F0813E4623
:101E60003046BDE8F08100BF2DE9F84310F1480786
:101E70001FD0884606464FF00009D7E90154013DBE
:101E800011D4A389012B05F1FF3508D9B4F90E301F
:101E900001332146304602D0C04749EA00096B1C95
:101EA00004F16804EDD13F68002FE6D14846BDE853
:101EB000F883B9464846BDE8F88300BF2DE9F041F4
:101EC00006694D11AE422EDD00F1140711F01F011D
:101ED00007EB860C07EB85032BD057F8252004333E
:101EE0009C4522FA01F4C1F1200818D9BE461A68AF
:101EF00002FA08F222434EF8042B53F8044B9C4597
:101F000024FA01F4F3D8731B9B00053B9B080133B3
:101F100007EB830547F82340CCB1043517E0446153
:101F20003D46002CF9D10023036100234361BDE845
:101F3000F0819C4588BF00F11002F4D953F8041BCE
:101F400042F8041F9C45F9D8751B07EB8505EB1B70
:101F50009B10BD420361E8D0BDE8F0812DE9F04F50
:101F6000BC4C8DB0246808908946204605920A939F
:101F7000069401F005FED9F80030049021189A78F3
:101F800011F8011C0191302A40F0E5816FF0010148
:101F9000C91A033301EB030A1C4613F8012B302A3C
:101FA000F8D0AD4FBB5C002B00F0F98023784FF0E8
:101FB0000008FB5C4546264623B116F8013FFB5C52
:101FC000002BFAD1049A0699304601F047FE0290A0
:101FD000002800F099803378002D40F09881029518
:101FE000502B00F09B80702B00F098803546C9F88C
:101FF0000060B8F1000F40F0C0802B1B013B072BA5
:10200000414604DD5B10072B01F10101FADC089861
:1020100000F0D2FB0390002800F03F82039BAC420B
:1020200003F11403099380F0C5819B46049B0026AD
:10203000C3F10103B14607930FE0202E00F0A68004
:102040003246043615F8013CFB5C554603F00F039D
:102050009340A54249EA030918D915F8013C019AB1
:10206000934205F1FF3A0BF10408E6D1079B534474
:10207000A342E2D31846049A06990B9301F0EEFDB1
:102080000B9B0028D9D11D46A542E6D8099B039A8F
:10209000CBF80090A8EB03084FEAA8031361484669
:1020A0004FEA431800F094FC059B1C68A8EB000065
:1020B000A04200F3AE80C0F22E810026059B029A5A
:1020C0009B689342C0F26B810598029A43689342E1
:1020D00040F382809D1AAC4200F3C080C268022A9D
:1020E00000F09D81032A00F09581012A00F079819A
:1020F0000898039900F0A0FB5025169A0023284663
:1021000013600DB0BDE8F08F002D00F01381AD1B02
:10211000AB0002933378502B7FF465AF73782B2B91
:1021200000F0F3802D2B70D0711C0025FB5C5A1E33
:10213000182A3FF65BAF4A78BA5C501E1828A3F104
:10214000100301F101010BD811F8010F03EB830318
:1021500002EB43033A5C501E1828A3F11003F3D995
:1021600005B15B42029A35461A440E460292C9F8FE
:102170000060B8F1000F3FF440AFBAF1000F14BF98
:102180000025062528460DB0BDE8F08F5B460022ED
:1021900043F8089BC34691469846042652E7049D9F
:1021A00006992A46204601F059FD002874D1625D47
:1021B000BB5C6619002B71D0302A344604D114F868
:1021C000013F302BFBD0FB5CB3FA83F835464FEA76
:1021D00058184FF0010AEEE6012556B1059BDB6861
:1021E000022B62D0032B64D0012B00F0858045F0D8
:1021F0001005169B1A46039B13600A9B1A46029B06
:10220000136028460DB0BDE8F08F0125B378B11CEE
:102210008CE7039F051B2946384600F0BDFF0646A4
:1022200078B16A1E099E511102F01F0356F8211061
:10223000012606FA03F30B4203D0B24200F3C88032
:102240000226DDE9023029462B440293FFF736FED1
:1022500034E700BF7CC200087CC100086F1E002E5E
:1022600040F0A680002F40F0AD807B11099A0398C2
:1022700052F8232007F01F07012303FA07F717423C
:10228000294618BF46F00206FFF718FE059B5B685B
:102290000293641B0225A0E722782646502A5ED0CE
:1022A000702A5CD0C9F8006067E7179BC3F101038F
:1022B0001793179B002B9AD0039BDDF824C01E694F
:1022C000B7000CEB07006346002103E0984243F897
:1022D000041C49D99E4653F8042BB2F1FF3FF5D0B8
:1022E0000132022DCEF8002000F09E8014F01F0471
:1022F00040F0BC8021257CE7B2077FF578AF099BD1
:102300001B681E43F307D7D471E700257EE7AD1B9A
:10231000AA00029264E6251A039908982A4600F05A
:10232000C5FC029B03905B1B029303461433099385
:102330000026C3E60499735CFA5C71180E46002A05
:102340003FF44EAE16F8013FFA5C002AFAD1891B21
:102350008A00029244E69C1C4FF0000A21E600230A
:1023600002934FF00108D9E6039B9B689E4262DA14
:102370003346039800EB830201210133022D0361F0
:10238000516151D09E42B1DA01210398FFF796FDC9
:10239000059B029A9B68013293420292AADA039942
:1023A000089800F049FA169A00231360A325E9E67D
:1023B00001265AE7039BDDF824B003F118084FF01B
:1023C000000963E63946039800F0E6FE06464CE74E
:1023D000A91E384600F0E0FE00283FF431AF032686
:1023E0002FE7AC427FF484AE012C08D0611E039825
:1023F00000F0D2FE00283FF47BAE059B5B680A9993
:102400000B60039B099901221A610A60169A6225E2
:102410001360B7E6179A002A3FF46AAEEFE7179AFF
:10242000002A7FF465AEEAE7059B1B68013BA342E7
:1024300027D02225DDE6039B08985968013100F07A
:10244000BBF9804678B303990B6902339A000C31CB
:102450000C30FDF74FFF0399089800F0EDF9CDF827
:102460000C8008F1140CD8F8103082E76744C4F1EE
:10247000200457F8040C00F0ABFAA042BFF63AAFC4
:1024800082E7631104F01F045CF823200123A340BA
:1024900013420CBF22252125ABE60246054B064818
:1024A000DE2101F05BFC0246024B0348842101F06F
:1024B00055FC00BF38D400084CD4000830B4046880
:1024C000013408E014F8013BA3F14105192D98BF30
:1024D0002033934207D111F8012B002AF2D1046076
:1024E000012030BC7047002030BC70472DE9F04F10
:1024F000096885B04B1111F01F01019002EB8303B5
:10250000039140F086801D1F00930098DFF87491BE
:102510000295002340F8043C19469A461E46984608
:10252000019BD3F800E09EF80140AC462B46934651
:102530000EF10100B4B119F80450002D4BD1202C3C
:1025400000F28E80564506DD634501D2072974DD11
:102550005B4555D8082186469EF801400EF10100E2
:10256000002CE8D1029D5A46002E7DD0634513D23F
:10257000072911DCC1F1080189001E68C1F1200E94
:102580001846476807FA0EF4344327FA01F6046048
:1025900040F8046F8445F4D893423ED9114653F86D
:1025A000040B41F8040B9D42F9D2002341F8043B8F
:1025B000A942FBD9009B53F8041C21B158E055F8FF
:1025C000043D002B54D1AA42F9D1012305202B60F0
:1025D00005B0BDE8F08F0131082906F1010607DCDE
:1025E0001A68120105F00F0515431D608646B3E712
:1025F0005B45B0D943F8048C0022043B0121F1E78C
:10260000A3F1040C43F8048CB246634600218646CD
:10261000A2E7191D00911D4677E7009C039B54F823
:10262000041C002BC9D0C3F120034FF0FF3020FA67
:1026300003F3194044F8041CBFE7C1F10801890005
:102640001F68C1F1200E1C46656805FA0EF23A4378
:1026500025FA01F7226044F8047FA445F4D877E70F
:10266000292C029D5A4607D0042005B0BDE8F08F02
:10267000052005B0BDE8F08F019C0EF1020020603E
:1026800072E700BF7CC1000870B50C46B1F90E10AE
:10269000002996B016461D4613DB6A4601F0B6FBCC
:1026A00000280EDB019A02F47042A2F50052B2FA41
:1026B00082F252094FF4806300202A60336016B022
:1026C00070BDA38900221B062A6004D54023002088
:1026D000336016B070BD4FF480630020336016B0D5
:1026E00070BD00BF8A8992070B4606D501F14702EB
:1026F00001211A60C3E90421704770B582B001ABB3
:102700006A460C460646FFF7BFFF0099054630466D
:1027100000F0D2FDB4F90C3070B11649B162019AE3
:102720000099206043F08003A381C4E904018AB9C1
:102730002B43A38102B070BD9A05FBD423F00303A1
:1027400004F1470243F002030121A3812260C4E99E
:102750000421EFE73046B4F90E1001F0EFFC10B998
:10276000B4F90C30E4E7A38923F0030343F0010339
:102770001BB2DDE7111C000810B4034CD4F8E44090
:10278000A4465DF8044B60476800002082B049B160
:102790005AB16BB113780B601278101C18BF01206E
:1027A00002B0704701A9002AF3D1104602B0704769
:1027B0006FF00100F4E700BF70B5446A06460D46AD
:1027C0005CB1E368A3B153F82500E8B1026843F8AF
:1027D00025200023C0E9033370BD102001F0D6FC92
:1027E00004467062E8B10023C0E901330360C360AE
:1027F00021220421304600F0FBFC736AE060DB68B4
:10280000002BE0D1002070BD012101FA05F4621D0A
:102810003046920000F0ECFC0028F3D0C0E90154EF
:10282000D7E70246024B0348662101F097FA00BF42
:1028300098D40008B0D4000830B5456A83B0044687
:1028400055B139B1636A4A68DB6853F82200086001
:1028500043F8221003B030BD1020019101F096FC26
:102860000199606220B1C0E901550560C560E8E7E3
:102870000246024B02488A2101F070FA98D40008FF
:10288000B0D40008F0B50C6983B00D46064601F1DE
:10289000140C0027DCF8000081B202FB0133190C94
:1028A000000C02FB00109BB2013703EB0043BC425B
:1028B0004CF8043B4FEA1043ECDC3BB1AA68A2425F
:1028C00007DD05EB8402013453612C61284603B017
:1028D000F0BD6968019330460131FFF76DFF019B40
:1028E0000746A0B12A6901930232920005F10C015A
:1028F0000C30FDF7FFFC294630463D46FFF79CFFB4
:1029000005EB8402019B536101342C61DEE7024632
:10291000024B0348B52101F021FA00BF38D400086A
:10292000B0D400082DE9F843264C089E1D46083314
:1029300084FB034C092D4FEAE373904607460C468F
:10294000C3EB6C0236DD012300215B009A4201F1EA
:102950000101FADC3846FFF72FFF68B30123B8F115
:10296000090FC0E9043613DC0A344FF00908454565
:102970000CDDA5EB0805254414F8013B0146303B6E
:102980000A223846FFF77EFFA542F5D1BDE8F8835D
:1029900004F109094E46444416F8013B0146303B18
:1029A0000A223846FFF76EFFB442F5D1A8F10804B9
:1029B0004C44DCE70021CDE70246034B0348CE211F
:1029C00001F0CCF9398EE33838D40008B0D40008CF
:1029D000020C12040346CAB90304102013F07F4FFF
:1029E00004BF1B02083013F0704F04BF1B010430FA
:1029F00013F0404F04BF9B000230002B05DB13F0A7
:102A0000804F00F1010008BF202070470020E5E75B
:102A1000036813F00702014607D0DA0720D49807AD
:102A200022D55B080B600120704798B2B0B91B0C2F
:102A3000102013F0FF0F04BF1B0A08301A0704BF51
:102A40001B0904309A0704BF9B080230DA0703D43D
:102A50005B0800F1010005D00B6070471046E8E705
:102A600000207047202070479B080B6002207047B1
:102A700010B50C460121FFF79FFE024618B1012355
:102A8000C0E9043410BD034B03484FF4A07101F0BA
:102A900065F900BF38D40008B0D400082DE9F04F24
:102AA0000E691769BE4283B00C46154605DB3A46EF
:102AB0002B4637460D4616461C46D5E9011307EB53
:102AC00006084345B8BF0131FFF776FE00900028A5
:102AD0007FD0009B03F1140A0AEB8809CA4505D28E
:102AE0005346002143F8041B9945FBD804F1140E0A
:102AF0000EEB860B05F11403DE4503EB870753D27B
:102B0000CDF80480984605E0090C28D1F3450AF178
:102B1000040A47D95EF8041B8EB2002EF4D0454655
:102B20005446002355F8041B20688AB21FFA80FC23
:102B300006FB02C2090C000C134406FB010202EB67
:102B400013429BB243EA0243AF4244F8043B4FEACC
:102B50001243E7D823605EF8041C090CD6D0DAF8DB
:102B6000003040461A4654464FF0000C0588120CBF
:102B700001FB052294449BB243EA0C4344F8043B16
:102B800050F8043B22681B0C95B201FB035303EB86
:102B90001C4387424FEA134CE8D8F34523600AF1FF
:102BA000040AB7D8DDF80480B8F1000F0BDD59F83E
:102BB000043CA9F104091BB105E059F8043D13B91F
:102BC000B8F10108F9D10098C0F8108003B0BDE851
:102BD000F08F0246024B034840F25D1101F0BEF84F
:102BE00038D40008B0D400082DE9F04312F00303F4
:102BF00083B0144607462DD10E46A4101CD07A6A25
:102C00008AB39568002D39D0E3074FF0000906D448
:102C1000641011D0286898B10546E307F8D531460D
:102C20002A463846FFF73AFF314680463846FFF7D6
:102C300003FE64104646EDD1304603B0BDE8F08394
:102C40002A4629463846FFF729FF2860C0F8009039
:102C50000546E2E7013B124A52F823200023FFF722
:102C600011FE0646C9E7102001F090FA024678628C
:102C700080B10023C0E901330360C36040F27121D9
:102C800038460192FFF7F4FE019A00239060054652
:102C90000360B9E7034B04484FF4D77101F05EF8C5
:102CA00088C2000898D40008B0D400082DE9F04785
:102CB0000E690D464FEA621AD1E901135644741C9D
:102CC0009C429146074604DD5B009C4201F10101F4
:102CD000FADC3846FFF770FD804600283FD0BAF195
:102CE000000F00F114000EDD0AF1050A4FEA8A0A0E
:102CF00008EB0A010346002243F8042B8B42FBD168
:102D0000AAF1140A5044296905F1140319F01F09A6
:102D100003EB810C1BD0C9F1200E0022196801FAC7
:102D200009F1114340F8041B53F8042B9C4522FA87
:102D30000EF2F3D80260002A18BF26463846C8F8BB
:102D400010602946FFF778FD4046BDE8F08704385B
:102D500053F8042B40F8042F9C45F9D8EEE70246BF
:102D6000024B034840F2D91100F0F8FF38D40008B4
:102D7000B0D4000830B40B6905460069C01A10D100
:102D80009B001435143119442B4401E09D4208D2B4
:102D900053F8044D51F8042D9442F7D003D24FF06C
:102DA000FF3030BC7047012030BC70472DE9F8433C
:102DB00016460B691269A3EB0208B8F1000F0D4625
:102DC00067D1920001F1140706F11401BB181144F8
:102DD00001E09F4261D253F8042D51F8044DA24204
:102DE000F7D050D36968FFF7E7FC00285FD02F6960
:102DF0003369C0F80C8006F11402143505EB870C1A
:102E000002EB830E00F11406002100E0264652F882
:102E1000044B55F8048B1FFA84F911FA88F3210C3E
:102E2000A3EB0903C1EB184101EB234134469BB2EC
:102E300043EA014396454FEA214144F8043BA84642
:102E4000E4D8AC4516D9264658F8042B11FA82F37B
:102E5000191401EB12419BB243EA0143C44546F801
:102E6000043B4FEA2141EFD80CF1FF36761B26F0E8
:102E70000306264423B956F8043D013F002BFAD03F
:102E80000761BDE8F8832B464FF0010835461E4622
:102E9000A8E7F8DB4FF00008A4E70021FFF78CFC5F
:102EA00060B101220023C0E90423BDE8F883024693
:102EB000064B07484FF4107100F050FF0246034BD9
:102EC000034840F2322100F049FF00BF38D4000827
:102ED000B0D40008124B10EE902A1A40A2F15073A1
:102EE000002B04DD0020194641EC100B70475B42BB
:102EF0001B15132B07DC4FF40022002042FA03F1CC
:102F000041EC100B7047143B1E2BDABF4FF0004210
:102F100022FA03F301230021184641EC100B7047FD
:102F20000000F07FF8B5046900F1140606EB840494
:102F300054F8045C2846FFF74BFDC0F120030A2833
:102F40000B60A4F1040131DD8E42A0F10B001AD216
:102F500054F8081C10B3C0F12007854021FA07F38C
:102F60001D4345F07F53A4F10805AE4201FA00F07D
:102F700043F4401303D254F80C1CF94008430246B2
:102F800043EC102BF8BD40B105FA00F040F07F5340
:102F9000002043F440130246F2E7014645F07F5318
:102FA00043F440130A4643EC102BF8BD8E42C0F1A7
:102FB0000B0738BF54F8081C25FA07FC00F1150070
:102FC0004CF07F5334BFF940002105FA00F043F480
:102FD000401340EA010243EC102BF8BD2DE9F04309
:102FE000884683B00121154657EC106BFFF7E4FBD0
:102FF0000446002850D0C7F30A59C7F31303B9F1A8
:10300000000F01D043F48013002E019325D06846B1
:103010000096FFF7FDFC00283AD0DDE90013C0F16F
:10302000200203FA02F20A43C34001936261002BBB
:1030300014BF02210121A3612161B9F1000F17D052
:10304000A9F2334909EB0003C0F13500C8F800309C
:103050002860204603B0BDE8F08301A8FFF7D8FC44
:10306000019B6361012120302161B9F1000FE7D19B
:1030700004EB8103A0F23240C8F800001869FFF7A2
:10308000A7FCC0EB41102860204603B0BDE8F083E8
:10309000DDE900236261CAE70246034B034840F2C0
:1030A0000A3100F05BFE00BF38D40008B0D400083D
:1030B0002DE9F04383B0884669468146FFF732FF29
:1030C000404601A955EC104BFFF72CFFDDE900133A
:1030D000D9F81020D8F81000CB1A121A03EB4213BB
:1030E000002B57EC106B0DDD05EB03594D463246B6
:1030F0003B462046294602F0C3F841EC100B03B0D2
:10310000BDE8F083C3EB033307EB03510F46EEE753
:103110001728D0B504460CDD0A490B4F00200026C5
:1031200032463B4601F082FF013CF9D141EC100BE5
:10313000D0BD064B03EBC004D4E9040141EC100BF5
:10314000D0BD00BF0000F03F0000244088C200084E
:1031500070B414694E1E02F11403761103EB84015E
:1031600001368B4200EB86060CD2041F53F8045B39
:1031700044F8045F9942F9D88B1A153B23F00303F6
:1031800004331844864204D9002340F8043B8642A5
:10319000FBD870BC704700BF03694A11934210B45A
:1031A00000F1140410DA04EB83039C421ED253F89E
:1031B000040C043B18B115E053F8042D92B99C425D
:1031C000FAD35DF8044B704704EB8203EDDD11F098
:1031D0001F01EAD054F8220020FA01F202FA01F1AC
:1031E0008842E2D001205DF8044B70470020E8E7F8
:1031F00038B502FB01F4214600F05EF8054618B12F
:1032000022460021FDF710F9284638BD00293CD0A0
:1032100038B551F8043C0C1F002BB8BFE418054624
:1032200001F07EF8234B1A682AB1A2420DD9216819
:103230006018824223D0626028461C60BDE8384096
:1032400001F070B8A34203D81A465368002BF9D195
:1032500011685018A04219D024D821686018834200
:1032600006D0636054602846BDE8384001F05AB883
:10327000D3E900030144636021605460F3E7D2E9BD
:103280000002014462602160D6E770472068014473
:10329000501883421160E6D1D3E900030144536022
:1032A0001160E0E70C232B602846BDE8384001F0B0
:1032B00039B800BF04020020F8B5CD1C25F0030585
:1032C00008350C2D38BF0C25002D064633DBA942EE
:1032D00031D82A4F01F024F83A6852B113685B1BC9
:1032E00004D43FE023685B1B29D522465468002C98
:1032F000F8D1796800293BD02946304600F0DCFB44
:10330000431C28D0C41C24F00304A04205D0211A79
:10331000304600F0D1FB01301DD02560304601F071
:1033200001F804F10B0020F00700231DC21A01D0A0
:103330001B1AA350F8BD0C2232600020F8BD0B2BE5
:1033400005D8A242636811D05360E7E714462360B2
:103350001C442560E2E70C233046336000F0E2FFB6
:103360000020F8BD0B2BF1D8536814463B60D5E71D
:10337000304600F0A1FB7860BEE700BF04020020E9
:103380009368013B002B936011DA10B49469A34257
:1033900009DB0A2907D01368581C10601970084609
:1033A0005DF8044B70475DF8044BFEF777BA13687D
:1033B000581C106019700846704700BF9BB1F8B5E3
:1033C00013440F4606465D1E541E01E0AC4208D071
:1033D0003A4614F8011F3046FFF7D2FF431CF5D1DF
:1033E000F8BD0020F8BD0020704700BF936810B5FD
:1033F000144613B95360184610BD00F01BFD00239E
:10340000C4E9013310BD00BF2DE9F04F9FB08B46DA
:1034100090461C46039018B18369002B00F0B780DA
:10342000A24B9B4500F0B980A14B9B4500F0C780A3
:10343000A04B9B4504BF039BD3F80CB0BBF80C30EA
:10344000180740F1B280DBF81030002B00F0AD809F
:1034500030238DF8323098F8003005940021202276
:103460000B918DF83120944E0127002B00F08780BE
:10347000252B00F01581454603E0252B00F0A380A5
:1034800025466B786C1C002BF7D1B4EB080A76D07C
:103490004246534659460398FFF790FF01306ED0DD
:1034A0000B9B6A7853440B93002A68D000234FF09B
:1034B000FF3201340693CDE908338DF85B301C935D
:1034C000079205E0069A07FA03F313432C46069386
:1034D0002546052215F8011B304600F069FEAA4674
:1034E000831B0028EED1069BD90644BF20228DF80D
:1034F0005B2021781A0744BF2B228DF85B202A29F4
:1035000066D1059A1168043200290592C0F29D80A7
:1035100009916178A51C2E2973D0684C032220469E
:1035200000F046FE002800F08680001B069B402429
:1035300004FA00F00343069305F101082978604876
:103540008DF83010062200F033FE002800F0838052
:103550005C4B002B72D005AB00935A465A4B039834
:1035600006A9AFF300808146B9F1FF3F07D00B9B5E
:103570004B440B9398F80030002B7FF479AFBBF8E5
:103580000C305B0618D40B981FB0BDE8F08FFEF727
:1035900025FC464B9B457FF447AF039BD3F804B013
:1035A000BBF80C3018073FF54EAF59460398FEF7AD
:1035B000D5F900283FF44CAF4FF0FF30E4E7039B10
:1035C000D3F808B03AE7B4EB080A3FF46FAF5FE70F
:1035D000A1F13002092A88BFA2469CD8099B01E0CC
:1035E0002C460135297803EB830302EB4303A1F159
:1035F0003002092AAA46F3D92E2904F102050993BB
:103600008BD19AF801102A292FD1059B9AF8021024
:103610001A6807920433002A05930AF103050AF198
:10362000020338DB254C032220469A4600F0C0FDF9
:1036300000287FF47AAFA84655467FE7059B0733FD
:1036400023F007030833059391E7494243F002034F
:10365000099106935DE705AB00935A461A4B039810
:1036600006A900F0D5F881467EE7A1F130020023DB
:10367000092A079301D915E05546697803EB8303BE
:1036800002EB4303A1F13002092A05F1010AF3D943
:103690000235079341E74FF0FF329A4607923CE725
:1036A000444603E7AA46013537E700BF5CC100087E
:1036B0003CC100081CC10008E4D40008ECD4000898
:1036C000F0D4000800000000BD33000810B4044C22
:1036D00013460A46014620685DF8044BFFF794BE86
:1036E000000000202DE9F0470C4691460A698968E0
:1036F000DDF820808A42B8BF0A46C9F8002094F855
:10370000431006461F4611B10132C9F80020236854
:1037100099065CD5D9F800200232C9F80020236848
:1037200013F0060F19461DD1E1688A1A002AD8BF86
:10373000194617DD04F1190A002505E0E368D9F8F8
:1037400000209B1AAB420CDD01235246394630461D
:10375000C047013005F10105F0D14FF0FF30BDE861
:10376000F087216894F84330003318BF01238A069C
:103770000AD5E1185A1C302081F84300224494F8FD
:10378000451082F84310023304F1430239463046B3
:10379000C0470130E1D02368A268216903F0060325
:1037A000042B1DD08A4226DD4FF00009521A9144A5
:1037B0001A34002501E04D451DDA01232246394621
:1037C0003046C047013005F10105F4D1C5E713F0DB
:1037D000060F13D094F84330003318BF0123D3E70A
:1037E000D9F80000E3688A42A3EB000323EAE379F7
:1037F000DCDC002BDCDC0020BDE8F087E168D9F8D8
:1038000000208A1A002AD8BF194693DCAAE700BF15
:103810002DE9F0430C46097E85B06E290646174611
:103820000C98984604F1430E6DD039D9732900F0F5
:10383000F68044D9752900F00481782940F011817F
:1038400078232268DFF858C284F8453001681506ED
:1038500051F8043B016040F1A180D10744BF42F020
:1038600020022260002B00F093801022002184F8B7
:1038700043106068A0600028C0F2C880216821F071
:1038800004012160002B40F0A380002840F0C0809C
:103890007546082A00F0AC80AEEB0503236141E0D9
:1038A000632900F0E5801AD8002938D0582940F063
:1038B000D88084F845102268DFF8E8C1C6E76F2990
:1038C00000F0BF80702940F0CC802268DFF8D0C1C2
:1038D00042F020027823226084F84530B6E764295C
:1038E00002D0692940F0BD8022680368110603F107
:1038F000040557D5196805600B46002959DBDFF828
:10390000A4C10A22B5E70368226861691D1D05602C
:1039100015061B6802D4500600F1BD801960002313
:1039200075462361CDF800803B4603AA2146304608
:10393000FFF7D8FE013020D02A46236939463046A9
:10394000C047013019D022680398E368920719D55F
:103950001A1A002A16DD04F11909002504E0E368AB
:1039600003981A1AAA420DDD01234A463946304609
:10397000C047013005F10105F1D14FF0FF3005B02E
:10398000BDE8F0839842B8BF184605B0BDE8F083A3
:10399000226822F020022260102267E7500648BF0A
:1039A0009BB25AE75106A5D5B3F900300560194618
:1039B000A3E76168A1602D200029C3F1000384F80A
:1039C000430002DB22F004022260DFF8D8C00A22A2
:1039D000754600E00B46B3FBF2F102FB1130934257
:1039E0001CF8000005F8010DF4D2082A7FF454AF4A
:1039F0002368DB077FF550AF626823699A423FF77F
:103A00004BAF302305F8013C013D45E7002BDFD1EA
:103A10009CF8003084F8423004F1420539E703682D
:103A20006268191D01601D680021284600F0C0FB76
:103A3000002832D0401B60602061002384F84330AE
:103A400070E72268036812F0800F03F104051AD0B2
:103A50001B6805606F290CBF08220A22DFF844C0EA
:103A600004E7012384F84210236104F14205E4E7EE
:103A700003681A68191D0123016004F1420584F8E6
:103A800042202361D9E712F0400F0DBF1B6805608B
:103A90001B880560DEE7198041E76068CCE700BF5E
:103AA0000CD50008F8D400089FED010B704700BF4B
:103AB000000000000000F87F38B5074C00230546E1
:103AC0000846236005F018F9431C00D038BD236870
:103AD000002BFBD02B6038BD109500209FED010A14
:103AE000704700BF0000C07F10B50C46B1F90E1042
:103AF00000F040FC002803DB636D0344636510BDE8
:103B0000A38923F48053A38110BD00BF0020704718
:103B10002DE9F0411646B1F90C201F46D3050C469D
:103B20000546B1F90E1009D422F48052A2813B4619
:103B300032462846BDE8F04100F0FAB800220223E0
:103B400000F00EFBB4F90C20B4F90E10ECE700BF46
:103B500010B50C46B1F90E1000F002FBA389421C0F
:103B60000EBF23F4805343F480536065A38110BDDE
:103B7000B1F90E1000F016B90000000000000000BE
:103B800090F800F06DE9024520F007016FF0000C9D
:103B900010F0070491F820F040F049804FF0000445
:103BA0006FF00700D1E9002391F840F000F1080020
:103BB00082FA4CF2A4FA8CF283FA4CF3A2FA8CF358
:103BC0004BBBD1E9022382FA4CF200F10800A4FABF
:103BD0008CF283FA4CF3A2FA8CF3E3B9D1E9042313
:103BE00082FA4CF200F10800A4FA8CF283FA4CF34A
:103BF000A2FA8CF37BB9D1E9062301F1200182FA04
:103C00004CF200F10800A4FA8CF283FA4CF3A2FA09
:103C10008CF3002BC6D0002A04BF04301A4612BA17
:103C2000B2FA82F2FDE8024500EBD2007047D1E91A
:103C3000002304F00305C4F100004FEAC50514F0A9
:103C4000040F91F840F00CFA05F562EA05021CBF7A
:103C500063EA050362464FF00004A9E7002A46D054
:103C600040EA010313F00303F0B425D1032A23D95A
:103C700004680D68AC423CD1043A35D0A4F101355A
:103C800025EA040414F0803F2ED1071D0D1D0DE020
:103C900057F8043B0E68A3F10134B34224EA03044D
:103CA00027D1043A20D014F0803F1DD1032A2946A1
:103CB000384605F10405EBD803780D789D4202F1F2
:103CC000FF360ED186B17BB1044602E082180BD0DC
:103CD00053B114F8013F11F8015FAB42A6EB0402A7
:103CE000F4D0581BF0BC70470020F0BC7047104661
:103CF000704703780D789D4202F1FF36E3D0F0E77C
:103D000010B4034CD4F8E040A4465DF8044B60477F
:103D10006800002049B1FF2A02D80A7001207047CC
:103D20008A2303604FF0FF3070470846704700BF9A
:103D300070B50D46084C114606461A462846002323
:103D4000236004F0BFFF431C00D070BD2368002B2C
:103D5000FBD0336070BD00BF1095002000B50A4C49
:103D60002668054685B01C46F06852B1074B0091A5
:103D7000CDE9013206492B46224600F033F800F027
:103D80000FFB044B1A46F2E70000002020D5000884
:103D900030D50008ACC4000808B513460022FFF770
:103DA000DDFF00BF38B5074C0023054608462360F9
:103DB00004F096FF431C00D038BD2368002BFBD0D5
:103DC0002B6038BD109500200CB400B583B004AB57
:103DD00053F8042B0193FFF717FB03B05DF804EBD6
:103DE00002B070470EB410B583B005AB064C53F863
:103DF000042B019301462068FFF706FB03B0BDE8E2
:103E0000104003B0704700BF0000002038B50B46DB
:103E1000074C0546114618460023236004F063FF53
:103E2000431C00D038BD2368002BFBD02B6038BD6D
:103E3000109500209368002B00F002812DE9F04FCF
:103E4000B1F90C309BB20C46190783B082469046FC
:103E500035D522699AB313F00202D8F800603DD03C
:103E60000027D4F828B0D4F820C0DFF8CC923D4623
:103E70004D452B463A4628BF4B4661465046D5B184
:103E8000D847002840F3D280D8F808301B1A0744DE
:103E90002D1AC8F80830002B00F0B780D4F820C0E5
:103EA000D4F828B04D452B463A4628BF4B466146CC
:103EB0005046002DE4D1D6E900750836D8E72146F2
:103EC0005046FDF74BFD002840F03081B4F90C302E
:103ED000D8F800609BB213F00202C1D113F00109BF
:103EE00040F0B080A76820684D46002D54D09A0558
:103EF00040F1BC80AF42BB4600F2E78013F4906F04
:103F00002FD0D4E9041707EB4707A0EB010B07EB11
:103F1000D777681C7F105844B8423A4684BF07469A
:103F20003A465B0540F1E98011465046FFF7C4F977
:103F3000002800F0F5805A4621690190FCF7DAF973
:103F4000A289019B22F4906242F08002A281A7EB39
:103F50000B0203EB0B00676123612060A2602F4618
:103F6000AB465A46494600F073F9A2682368D21B53
:103F70005B442F46A26023600025D8F80830DB1B85
:103F8000B944C8F80830002B3FD0B4F90C30A7680A
:103F900020689BB2002DAAD1D6E900950836A4E787
:103FA0000BF1080353E902679B460833002FF9D051
:103FB0003A460A21304600F0FBF8002853D0013081
:103FC000A0EB06094B46D4E904122068BB4228BF87
:103FD0003B46884203D9A5681544AB4219DC9A4296
:103FE0007DDC1346A56A216A32465046A847051E65
:103FF0001CDDB9EB05096BD00120D8F808305B1B3C
:104000002E447F1BC8F8083013BB002003B0BDE866
:10401000F08F31462A4600F01BF923682B442360B9
:1040200021465046FDF7B0FD0028E2D0B4F90C302F
:1040300043F040034FF0FF30A38103B0BDE8F08FA1
:104040000020704733469146104617464E469B4621
:10405000002FA5D00028B5D13A460A21304600F0FD
:10406000A7F80028ABD17B1C9946ACE723698342B3
:1040700015D36169A94212D82E4BA76A9D4294BFFD
:104080002B466FF000434A4693FBF1F3504601FB89
:1040900003F3216AB847071EC8DDED1B6DE7AF4289
:1040A00028BF2F463A46494600F0D2F8A368226856
:1040B000DB1B3A44A3602260002BEED12146504620
:1040C000FDF762FD0028E8D0B0E72F46AB4648E791
:1040D00021465046FDF758FD00288ED0A6E71A4627
:1040E0003146019300F0B4F8019BA1682268C91A17
:1040F0001A44A16022601D467BE7504600F014F987
:10410000034600287FF423AF21695046FFF77EF86D
:10411000B4F90C300C2223F08003CAF8002087E7A2
:104120000C23CAF80030B4F90C3081E74FF0FF30AF
:104130006CE700BFFEFFFF7F00FCFF7F38B5074C38
:10414000002305460846236004F0D2FD431C00D03E
:1041500038BD2368002BFBD02B6038BD10950020A4
:1041600070B50D46084C114606461A4628460023EF
:10417000236004F0BFFD431C00D070BD2368002BFA
:10418000FBD0336070BD00BF10950020024B01468C
:104190001868FFF791B800BF00000020024B0146ED
:1041A0001868FFF733B800BF0000002000000000CF
:1041B00001F0FF01102A2BDB10F0070F08D010F8D8
:1041C000013B013A8B422DD010F0070F42B3F6D1DC
:1041D000F0B441EA012141EA014122F007047FF0F5
:1041E00000070023F0E80256083C85EA010586EA4C
:1041F000010685FA47F5A3FA87F586FA47F6A5FA88
:1042000087F68EB9EED1F0BC01F0FF0102F0070293
:1042100032B110F8013B013A83EA010313B1F8D13E
:104220000020704701387047002D06BF354603381F
:10423000073815F0010F07D1013015F4807F02BF58
:10424000013015F4C03F0130F0BC0138704700BFA9
:104250008842F0B40DD98B1883420AD9841832B140
:10426000224613F8014D02F8014D9942F9D1F0BCF4
:1042700070470F2A0ED80346541E002AF7D0013487
:104280000C44013B11F8012B03F8012FA142F9D195
:10429000F0BC704740EA01039B073BD1A2F1100735
:1042A0003F0901F1200606EB071601F1100300F1AA
:1042B000100453F8105C44F8105C53F80C5C44F89C
:1042C0000C5C53F8085C44F8085C53F8045C44F850
:1042D000045C1033B34204F11004EAD17B1C1B01CF
:1042E00012F00C0F194402F00F05034415D0043DE1
:1042F000AD0803EB850C1C1F0E4656F8047B44F8F2
:10430000047F6445F9D10135AD002B44294402F006
:104310000302B1E7541E0346B1E72A46ACE700BFEB
:10432000704700BF704700BF09B3F8B51446CAB163
:1043300006460D4600F03CF8A04202D32F46384610
:10434000F8BD21463046FEF7B7FF07460028F6D0F5
:1043500022462946FBF7CEFF30462946FEF756FF98
:104360003846F8BD2746FEF751FF3846F8BD1146DE
:10437000FEF7A2BF70B50D46084C114606461A4618
:1043800028460023236004F08DFC431C00D070BD40
:104390002368002BFBD0336070BD00BF1095002058
:1043A00008B5062000F092F8012004F075FC00BF6B
:1043B00051F8043C181F002BBCBF0B58C0187047A5
:1043C00010B580210446FEF777FF606440B1031FFB
:1043D00000227C3043F8042F8342FBD1002010BD23
:1043E0004FF0FF3010BD00BF436C0BB10020704791
:1043F000E6E700BF1F2970B5054608D8436C16468E
:104400000C464BB153F8240043F8246070BD1622CB
:1044100002604FF0FF3070BDFFF7D2FF08B96B6C40
:10442000F0E74FF0FF3070BD1F2938B521D8426C3E
:1044300005460C466AB152F8213053B1012B16D013
:10444000591C10D00025204642F824509847284691
:1044500038BD284600F070F8224601462846BDE8DF
:10446000384000F055B816230360012038BD002005
:1044700038BD162303604FF0FF3038BD1F2921D807
:1044800038B5436C05460C4683B153F8242003EB42
:1044900084034AB1511C10D0012A0CD000252046BB
:1044A0001D609047284638BD012038BDFFF788FFC2
:1044B00028B96B6CE9E7032038BD022038BD4FF006
:1044C000FF3038BD4FF0FF30704700BF024B014650
:1044D0001868FFF7A9BF00BF00000020024B0A4682
:1044E00001461868FFF786BF00000020034B1868DC
:1044F000436C0BB10020704762E700BF0000002052
:10450000024B01461868FFF7B9BF00BF000000204A
:1045100038B50B46074C0546114618460023236064
:1045200004F0B2FB431C00D038BD2368002BFBD045
:104530002B6038BD1095002004F0A4BB53EC102B69
:1045400070B5C3F30A55A5F2FF311329184610EED2
:10455000104A21DC002908DB1F4D0D4105EA030646
:10456000344310D143EC102B70BD03F000400131F7
:1045700004BF40F07F5040F4401000240346224620
:1045800043EC102B70BD4FF4002343FA01F10844B3
:1045900020EA05000024F1E733290ADDB1F5806F38
:1045A000E0D110EE100A194600F08AFB41EC100B26
:1045B00070BDA5F213454FF0FF3626FA05F52A42E5
:1045C000D0D00123C1F1330103FA01F1641828BFEF
:1045D000C01824EA0504D1E7FFFF0F0008B52DED50
:1045E000028BB0EE608AF0EE408A00F033F820B91A
:1045F000B0EE480ABDEC028B08BDB0EE480A00F0F0
:1046000029F820B1F4EEC88AF1EE10FAF0DDB0EE30
:10461000680ABDEC028B08BD08B52DED028BB0EE2B
:10462000608AF0EE408A00F015F820B9B0EE480A32
:10463000BDEC028B08BDB0EE480A00F00BF820B1CB
:10464000F4EEC88AF1EE10FAF0D5B0EE680ABDECCF
:10465000028B08BD10EE103A33F000400ED0A0F5EA
:104660000003B3F1FE4F0DD3074B421E9A4207D908
:10467000A0F1FF40B0FA80F0400970470220704777
:104680000320704704207047FEFF7F0000000000F9
:1046900008B52DED048BB0EE408AF0EE608A00F094
:1046A000A3F8234BB0EE409AF0EE609A93F90030F5
:1046B000013316D0B0EE480AF0EE680A00F0F2FAC4
:1046C00078B113A3D3E9002351EC180B00F03EFF9F
:1046D000A8B911A3D3E9002351EC180B00F018FF7F
:1046E00030B9B0EE490AF0EE690ABDEC048B08BDA2
:1046F000FBF7D6FD22239FED0A9B0360F1E7FBF752
:10470000CFFD222303609FED089BEAE7AFF3008013
:10471000EF39FAFE422E864051302DD5104987C020
:104720000000000000000000000000000000F07F1A
:10473000D401002008B52DED028BF0EE408AB0EEDA
:10474000608A00F017FA114B93F90030013310D052
:10475000B4EE488AF1EE10FA0BD6F4EE688AF1EE68
:1047600010FA06D6DFED0A8AB4EE688AF1EE10FA86
:1047700002D0BDEC028B08BDFBF792FD88EEA80AC3
:10478000BDEC028B2123036008BD00BFD4010020D3
:104790000000000008B52DED028BB0EE408A00F05D
:1047A0007DFA0E4B93F9003001330BD0B4EE488AFA
:1047B000F1EE10FA06D6DFED0A8AB4EEE88AF1EEE1
:1047C00010FA02D4BDEC028B08BDFBF769FD88EE40
:1047D000A80ABDEC028B2123036008BDD401002090
:1047E00000000000000000002DE9F04D5BEC10AB74
:1047F000D9492BF000425B468A4284B04FEAD37419
:1048000012D9D6498A422ED9CBF3130353EA0A03AD
:1048100010EE102A40F04D81002C00F0EA809FED50
:10482000B60B04B0BDE8F08DCD4B9A425BD8CD4BB2
:104830009A4200F2E180B2A3D3E9002310EE100AFD
:10484000594600F03DFA0022C74B00F07FFE0028D9
:1048500000F0D280504659460022C34B00F030FA97
:1048600041EC100BC5E0A8A3D3E9002310EE100A19
:10487000594600F06BFE002840F02681A4A3D3E93E
:1048800000235046594600F043FE0028C7D1B749DF
:10489000A1A3D3E9002301EBC4045046594600F01C
:1048A000C5FBD4E9082300F00BFA00F06FFE804648
:1048B00000F052FB9AA3D3E9002304460D4600F012
:1048C000B5FB02460B465046594600F0F7F996A351
:1048D000D3E9002306460F462046294600F0A6FBF2
:1048E000CDE9000116E0A24B9A42D0D89F4D05EBCE
:1048F000C405D5E9002310EE100A594600F0DEF990
:1049000095ED047B8DED007BC4F1010306460F4657
:10491000A3EB0408DDE900233046394600F0CEF968
:1049200002460B4682468B4600F080FB80A3D3E90B
:10493000002304460D4600F079FB7FA3D3E9002352
:1049400000F0BCF922462B4600F070FB7CA3D3E9B3
:10495000002300F0B5F922462B4600F067FB7AA34E
:10496000D3E9002300F0AAF922462B4600F05EFBB3
:1049700077A3D3E9002300F0A3F922462B4600F0E9
:1049800055FB02460B465046594600F097F904463F
:104990000D4622462B465046594600F047FB22461C
:1049A000CDE902012B46B8F1000F5ED000204FF098
:1049B000804100F083F902460B46DDE9020100F078
:1049C0005FFC02460B46DDE9000100F077F9324654
:1049D0003B4600F073F90B4602466349002000F0A5
:1049E0006DF96FF47F73984578DB01EB085141EC6A
:1049F000100B04B0BDE8F08D52465B465046594658
:104A000000F014FB4AA3D3E9002304460D4600F04E
:104A10000DFB49A3D3E9002300F050F922462B46B1
:104A200000F004FB46A3D3E9002300F049F9224635
:104A30002B4600F0FBFA44A3D3E9002300F03EF933
:104A400022462B4600F0F2FA41A3D3E9002300F0FE
:104A500037F922462B4600F0E9FA02460B4650464B
:104A6000594600F02BF902460B4650465946164669
:104A70001F4600F0DBFA002204460D464FF080434B
:104A80003046394600F01AF902460B4620462946C0
:104A900000F0F6FB52465B4600F010F902460B466A
:104AA0000020314900F00AF941EC100B04B0BDE8D8
:104AB000F08D5B4610EE100A594600F001F941EC0A
:104AC000100B04B0BDE8F08D0DA3D3E90023104610
:104AD000194600F0ABFA41EC100B8AE708F57A733F
:104AE00001EB035100224FF0B87300F09FFA41EC44
:104AF000100B04B0BDE8F08D0000000000000000C5
:104B00009C7500883CE4377EEF39FAFE422E8640E1
:104B100051302DD5104987C0FE822B654715F73FD0
:104B20000000E0FE422EE63F763C7935EF39EA3D63
:104B3000D0A4BE726937663EF16BD2C541BDBB3EA3
:104B40002CDE25AF6A56113F93BDBE166CC1663F81
:104B50003E5555555555C53F412E8640FFFFEF7FC9
:104B6000422ED63FFFFF2F3E0000F03FB0C30008AB
:104B7000B1A2F03FF0B482B0CDED010A019830F05F
:104B8000004C40D010EE105A25F00046B6F1FF4F11
:104B900039DABCF1FF4F36DC66453ADB05F00047F9
:104BA0003AD015F0FF4F5AD1310200296FF07D0243
:104BB00004DD4900002902F1FF32FADC10F0FF4F5A
:104BC0005CD15FEA0C216FF07D0403D4490004F14D
:104BD000FF34FBD512F17E0F4ADBC5F3160343F415
:104BE000000314F17E0F3DDBC0F3160040F400001B
:104BF000121B02E010D04B00013A191AAAB1002989
:104C0000F8DA5B00F8E7DDED017A60EE277A87EEEF
:104C1000A70A02B0F0BC70471E4AFB0F02EB8303E9
:104C200093ED000A02B0F0BC704713EA210338BFCD
:104C30000B46002BF0D0184A934204DC5B009342F1
:104C400004F1FF34FADD14F17E0F1BDBA3F5000342
:104C50003B437F3443EAC45300EE103AD9E7F215E0
:104C60007F3AABE76FF07D01091B0CFA01F0BFE75B
:104C70006FF07D039B1A06FA03F3B2E74FEAEC5498
:104C80007F3CA7E76FF07D02141B23413B4300EEFE
:104C9000103ABEE7E0C30008FFFF7F00B1EEC00A94
:104CA000704700BF10EE903A43F0004000F58010CE
:104CB000C00F704781F0004102E000BF83F0004365
:104CC00030B54FEA41044FEA430594EA050F08BFA7
:104CD00090EA020F1FBF54EA000C55EA020C7FEA6B
:104CE000645C7FEA655C00F0E2804FEA5454D4EBE8
:104CF0005555B8BF6D420CDD2C4480EA020281EAB2
:104D0000030382EA000083EA010180EA020281EAE9
:104D10000303362D88BF30BD11F0004F4FEA01313B
:104D20004FF4801C4CEA113102D0404261EB41014A
:104D300013F0004F4FEA03334CEA133302D05242D0
:104D400063EB430394EA050F00F0A780A4F101048C
:104D5000D5F1200E0DDB02FA0EFC22FA05F28018C6
:104D600041F1000103FA0EF2801843FA05F35941AC
:104D70000EE0A5F120050EF1200E012A03FA0EFC2B
:104D800028BF4CF0020C43FA05F3C01851EBE37155
:104D900001F0004507D54FF0000EDCF1000C7EEB72
:104DA00000006EEB0101B1F5801F1BD3B1F5001FB0
:104DB0000CD349085FEA30004FEA3C0C04F10104CF
:104DC0004FEA445212F5800F80F09A80BCF1004FF8
:104DD00008BF5FEA500C50F1000041EB045141EA7A
:104DE000050130BD5FEA4C0C404141EB0101013C43
:104DF00028BFB1F5801FE9D291F0000F04BF014632
:104E00000020B1FA81F308BF2033A3F10B03B3F103
:104E100020020CDA0C3208DD02F1140CC2F10C0293
:104E200001FA0CF021FA02F10CE002F11402D8BFF1
:104E3000C2F1200C01FA02F120FA0CFCDCBF41EABD
:104E40000C019040E41AA2BF01EB0451294330BD8C
:104E50006FEA04041F3C1CDA0C340EDC04F1140469
:104E6000C4F1200220FA04F001FA02F340EA030040
:104E700021FA04F345EA030130BDC4F10C04C4F186
:104E8000200220FA02F001FA04F340EA0300294666
:104E900030BD21FA04F0294630BD94F0000F83F4B0
:104EA000801306BF81F480110134013D4EE77FEA93
:104EB000645C18BF7FEA655C29D094EA050F08BFDF
:104EC00090EA020F05D054EA000C04BF19461046C0
:104ED00030BD91EA030F1EBF0021002030BD5FEA04
:104EE000545C05D14000494128BF41F0004130BD2C
:104EF00014F580043CBF01F5801130BD01F0004580
:104F000045F0FE4141F470014FF0000030BD7FEAF2
:104F1000645C1ABF194610467FEA655C1CBF0B46ED
:104F2000024650EA013406BF52EA033591EA030F04
:104F300041F4002130BD00BF90F0000F04BF0021FC
:104F4000704730B54FF4806404F132044FF000052F
:104F50004FF0000150E700BF90F0000F04BF0021A8
:104F6000704730B54FF4806404F1320410F000450E
:104F700048BF40424FF000013EE700BF42004FEA09
:104F8000E2014FEA31014FEA02701FBF12F07F4386
:104F900093F07F4F81F06051704732F07F4208BF3D
:104FA000704793F07F4F04BF41F40021704730B544
:104FB0004FF4607401F0004521F000411CE700BF90
:104FC00050EA010208BF704730B54FF000050AE013
:104FD00050EA010208BF704730B511F0004502D514
:104FE000404261EB41014FF4806404F132045FEA16
:104FF000915C3FF4D8AE4FF003025FEADC0C18BFBF
:1050000003325FEADC0C18BF033202EBDC02C2F1B0
:10501000200300FA03FC20FA02F001FA03FE40EA42
:105020000E0021FA02F11444BDE600BF70B54FF046
:10503000FF0C4CF4E06C1CEA11541DBF1CEA135524
:1050400094EA0C0F95EA0C0F00F0DEF82C4481EA8C
:10505000030621EA4C5123EA4C5350EA013518BFAC
:1050600052EA033541F4801143F4801338D0A0FB99
:1050700002CE4FF00005E1FB02E506F00042E0FB46
:1050800003E54FF00006E1FB03569CF0000F18BF4C
:105090004EF0010EA4F1FF04B6F5007F64F54074F4
:1050A00004D25FEA4E0E6D4146EB060642EAC62187
:1050B00041EA55514FEAC52040EA5E504FEACE2EF4
:1050C000B4F1FD0C88BFBCF5E06F1ED8BEF1004FF7
:1050D00008BF5FEA500E50F1000041EB045170BD73
:1050E00006F0004646EA010140EA020081EA0301B7
:1050F000B4EB5C04C2BFD4EB0C0541EA045170BDB3
:1051000041F480114FF0000E013C00F3AB8014F12C
:10511000360FDEBF002001F0004170BDC4F1000475
:10512000203C35DA0C341BDC04F11404C4F12005F6
:1051300000FA05F320FA04F001FA05F240EA020051
:1051400001F0004221F0004110EBD37021FA04F687
:1051500042EB06015EEA430E08BF20EAD37070BD41
:10516000C4F10C04C4F1200500FA04F320FA05F0A0
:1051700001FA04F240EA020001F0004110EBD370A2
:1051800041F100015EEA430E08BF20EAD37070BD12
:10519000C4F1200500FA05F24EEA020E20FA04F3EB
:1051A00001FA05F243EA020321FA04F001F000419A
:1051B00021FA04F220EA020000EBD3705EEA430E0B
:1051C00008BF20EAD37070BD94F0000F0FD101F03A
:1051D0000046400041EB010111F4801F08BF013C73
:1051E000F7D041EA060195F0000F18BF704703F0B1
:1051F0000046520043EB030313F4801F08BF013D38
:10520000F7D043EA0603704794EA0C0F0CEA1355F3
:1052100018BF95EA0C0F0CD050EA410618BF52EAAD
:105220004306D1D181EA030101F000414FF00000B3
:1052300070BD50EA410606BF1046194652EA4306C1
:1052400019D094EA0C0F02D150EA013613D195EA35
:105250000C0F05D152EA03361CBF104619460AD17D
:1052600081EA030101F0004141F0FE4141F4700187
:105270004FF0000070BD41F0FE4141F4780170BD77
:1052800070B54FF0FF0C4CF4E06C1CEA11541DBFDC
:105290001CEA135594EA0C0F95EA0C0F00F0A7F8DE
:1052A000A4EB050481EA030E52EA03354FEA01310B
:1052B00000F088804FEA03334FF0805545EA13131E
:1052C00043EA12634FEA022245EA111545EA1065E6
:1052D0004FEA00260EF000419D4208BF964244F17D
:1052E000FD0404F5407402D25B084FEA3202B61A9C
:1052F00065EB03055B084FEA32024FF480104FF470
:10530000002CB6EB020E75EB030E22BFB61A7546E3
:1053100040EA0C005B084FEA3202B6EB020E75EB76
:10532000030E22BFB61A754640EA5C005B084FEADE
:105330003202B6EB020E75EB030E22BFB61A7546AB
:1053400040EA9C005B084FEA3202B6EB020E75EBB6
:10535000030E22BFB61A754640EADC0055EA060E77
:1053600018D04FEA051545EA16754FEA06164FEABA
:10537000C30343EA52734FEAC2025FEA1C1CC0D166
:1053800011F4801F0BD141EA00014FF000004FF0F3
:10539000004CB6E711F4801F04BF01430020B4F1B4
:1053A000FD0C88BFBCF5E06F3FF6AFAEB5EB030C6C
:1053B00004BFB6EB020C5FEA500C50F1000041EB69
:1053C000045170BD0EF0004E4EEA113114EB5C0436
:1053D000C2BFD4EB0C0541EA045170BD41F4801109
:1053E0004FF0000E013C90E645EA060E8DE60CEA11
:1053F000135594EA0C0F08BF95EA0C0F3FF43BAF2E
:1054000094EA0C0F0AD150EA01347FF434AF95EAE4
:105410000C0F7FF425AF104619462CE795EA0C0FC8
:1054200006D152EA03353FF4FDAE1046194622E795
:1054300050EA410618BF52EA43067FF4C5AE50EA6F
:1054400041047FF40DAF52EA43057FF4EBAE12E75F
:105450004FF0FF3C06E000BF4FF0010C02E000BF40
:105460004FF0010C4DF804CD4FEA410C7FEA6C5C23
:105470004FEA430C18BF7FEA6C5C1BD001B050EAC6
:10548000410C0CBF52EA430C91EA030F02BF90EAB1
:10549000020F0020704710F1000F91EA030F58BF70
:1054A000994208BF90422CBFD8176FEAE37040F0D2
:1054B000010070474FEA410C7FEA6C5C02D150EA70
:1054C000013C07D14FEA430C7FEA6C5CD6D152EA2B
:1054D000033CD3D05DF8040B704700BF84461046F0
:1054E00062468C461946634600E000BF01B5FFF7EF
:1054F000B7FF002848BF10F1000F01BD4DF808EDBF
:10550000FFF7F4FF0CBF012000205DF808FB00BF8F
:105510004DF808EDFFF7EAFF34BF012000205DF8E9
:1055200008FB00BF4DF808EDFFF7E0FF94BF012036
:1055300000205DF808FB00BF4DF808EDFFF7CEFF37
:1055400094BF012000205DF808FB00BF4DF808ED76
:10555000FFF7C4FF34BF012000205DF808FB00BF47
:105560004FEA410C7FEA6C5C02D150EA013C0AD15F
:105570004FEA430C7FEA6C5C02D152EA033C02D151
:105580004FF0000070474FF0010070474FEA4102B2
:1055900012F5001215D211D56FF47873B3EB625285
:1055A00012D94FEAC12343F0004343EA505311F0AC
:1055B000004F23FA02F018BF404270474FF000003E
:1055C000704750EA013005D111F0004008BF6FF07C
:1055D000004070474FF00000704700BF4A0011D2F2
:1055E00012F5001211D20DD56FF47873B3EB62523D
:1055F0000ED44FEAC12343F0004343EA505323FA49
:1056000002F070474FF00000704750EA013002D1BD
:105610004FF0FF3070474FF0000070474FEA4102F3
:10562000B2F1E04324BFB3F5001CDCF1FE5C0DD900
:1056300001F0004C4FEAC0024CEA5070B2F1004F4A
:1056400040EB830008BF20F00100704711F0804F4D
:1056500021D113F13872BCBF01F00040704741F412
:1056600080114FEA5252C2F11802C2F1200C10FA16
:105670000CF320FA02F018BF40F001004FEAC123FA
:105680004FEAD32303FA0CFC40EA0C0023FA02F39E
:105690004FEA4303CCE77FEA625307D150EA013374
:1056A0001EBF4FF0FE4040F44000704701F0004044
:1056B00040F0FE4040F40000704700BF53B94AB9C3
:1056C000002908BF00281CBF4FF0FF314FF0FF300A
:1056D00000F0A4B9ADF1080C6DE904CE00F03CF87F
:1056E000DDF804E0DDE9022304B0704738B500229C
:1056F000002304460D46FFF70BFF28B92046294634
:10570000BDE8384000F00AB8204605F1004100F03D
:1057100005F8404261EB410138BD00BFD0B50C4BEC
:10572000002206460F46FFF781FCFFF757FF0446AD
:10573000FFF702FC074B0022FFF778FC02460B46FE
:1057400030463946FFF7BAFAFFF748FF2146D0BD89
:105750000000F03D0000F0412DE9F047089D0446AF
:105760008C46002B40F083808A42174647D9B2FA14
:1057700082F242B1C2F1200024FA00F09140974039
:1057800040EA010C94404FEA1748230CBCFBF8F6A2
:105790001FFA87FE08FB16C143EA014306FB0EF120
:1057A000994209D9FB1806F1FF3080F0198199421E
:1057B00040F21681023E3B445B1AA4B2B3FBF8F000
:1057C00008FB103344EA034400FB0EFEA64509D94A
:1057D0003C1900F1FF3380F00581A64540F20281BB
:1057E00002383C4440EA0640A4EB0E0400261DB1FA
:1057F000D4400023C5E900433146BDE8F08702B933
:10580000FFDEB2FA82F2002A50D1CB1B4FEA174ECC
:105810001FFA87F80126B3FBFEFC210C0EFB1C339C
:1058200041EA034108FB0CF38B4207D979180CF1CC
:10583000FF3002D28B4200F2E9808446C91AA3B23B
:10584000B1FBFEF00EFB101143EA014408FB00F827
:10585000A04507D93C1900F1FF3302D2A04500F260
:10586000D9801846A4EB080440EA0C40BFE78B42FD
:1058700009D9002D00F0B1800026C5E900013046AD
:105880003146BDE8F087B3FA83F6002E4AD18B4249
:1058900002D3824200F2B880841A61EB0301012036
:1058A0008C46002DA8D0C5E9004CA5E7C2F1200325
:1058B00020FA03F6974001FA02F04FEA174ED9405A
:1058C0003043030CB1FBFEF61FFA87F80EFB1611EE
:1058D00043EA014306FB08F1994204FA02F409D9AC
:1058E000FB1806F1FF3C80F08D80994240F28A80DF
:1058F000023E3B445B1A81B2B3FBFEF00EFB103359
:1059000041EA034100FB08F38B4207D9791800F103
:10591000FF3C73D28B4271D902383944CB1A40EA2A
:10592000064678E7C6F1200C03FA06F422FA0CF3D7
:105930001C4320FA0CF701FA06F34FEA144E21FA41
:105940000CF11F433B0CB1FBFEF91FFA84F80EFB70
:10595000191143EA014109FB08FA8A4502FA06F2E5
:1059600000FA06F308D9611809F1FF3048D28A45D8
:1059700046D9A9F102092144A1EB0A01BFB2B1FB4A
:10598000FEF00EFB101147EA014700FB08F8B8458E
:1059900007D9E71900F1FF312ED2B8452CD90238CA
:1059A000274440EA0940A7EB0807A0FB02894F45BE
:1059B000C64649461AD317D05DB1B3EB0E0267EB6A
:1059C000010707FA0CFCF2404CEA0202F740C5E975
:1059D000002700263146BDE8F0872E4628460BE713
:1059E0000646E9E61846FDE64345E5D2B8EB020E69
:1059F00069EB04010138DFE70846D2E760468DE72E
:105A00008146B9E7664675E730464AE7ACF1020CD5
:105A1000394413E702383C4424E700BF704700BF15
:105A200000B589B000230593069307930193029371
:105A3000039304931B481C4A02604FF48032426077
:105A400083600361037680F82030C362174A826264
:105A5000C3600122C26180F83030426103F0E4FC8F
:105A6000B8B91623059300230693079305A90D489B
:105A700003F0DAFE80B90A23019301230293002385
:105A8000039301A9074803F0FDFD40B909B05DF893
:105A900004FB02F05DFCE4E702F05AFCEBE702F0E5
:105AA00057FCF3E758020020002001400100000FDE
:105AB00000B585B00023009301930293039314482B
:105AC000144A02604FF480324260836003610376BF
:105AD00080F82030C3600122C26180F8303042611A
:105AE00003F0A2FC68B90B23009301230193002368
:105AF00002936946064803F0C5FD28B905B05DF874
:105B000004FB02F025FCEEE702F022FCF6E700BF02
